{
  "contractName": "MultiSigWallet",
  "abi": [
    {
      "inputs": [
        {
          "internalType": "address[]",
          "name": "_signers",
          "type": "address[]"
        },
        {
          "internalType": "uint256",
          "name": "_quorum",
          "type": "uint256"
        }
      ],
      "stateMutability": "nonpayable",
      "type": "constructor"
    },
    {
      "anonymous": false,
      "inputs": [
        {
          "indexed": true,
          "internalType": "uint256",
          "name": "transactionId",
          "type": "uint256"
        },
        {
          "indexed": true,
          "internalType": "address",
          "name": "approver",
          "type": "address"
        }
      ],
      "name": "TransactionApproved",
      "type": "event"
    },
    {
      "anonymous": false,
      "inputs": [
        {
          "indexed": true,
          "internalType": "uint256",
          "name": "transactionId",
          "type": "uint256"
        },
        {
          "indexed": true,
          "internalType": "address",
          "name": "executor",
          "type": "address"
        }
      ],
      "name": "TransactionExecuted",
      "type": "event"
    },
    {
      "anonymous": false,
      "inputs": [
        {
          "indexed": true,
          "internalType": "uint256",
          "name": "transactionId",
          "type": "uint256"
        }
      ],
      "name": "TransactionProposed",
      "type": "event"
    },
    {
      "inputs": [
        {
          "internalType": "uint256",
          "name": "",
          "type": "uint256"
        },
        {
          "internalType": "address",
          "name": "",
          "type": "address"
        }
      ],
      "name": "isApproved",
      "outputs": [
        {
          "internalType": "bool",
          "name": "",
          "type": "bool"
        }
      ],
      "stateMutability": "view",
      "type": "function"
    },
    {
      "inputs": [
        {
          "internalType": "address",
          "name": "",
          "type": "address"
        }
      ],
      "name": "isSigner",
      "outputs": [
        {
          "internalType": "bool",
          "name": "",
          "type": "bool"
        }
      ],
      "stateMutability": "view",
      "type": "function"
    },
    {
      "inputs": [],
      "name": "owner",
      "outputs": [
        {
          "internalType": "address",
          "name": "",
          "type": "address"
        }
      ],
      "stateMutability": "view",
      "type": "function"
    },
    {
      "inputs": [],
      "name": "quorum",
      "outputs": [
        {
          "internalType": "uint256",
          "name": "",
          "type": "uint256"
        }
      ],
      "stateMutability": "view",
      "type": "function"
    },
    {
      "inputs": [
        {
          "internalType": "uint256",
          "name": "",
          "type": "uint256"
        }
      ],
      "name": "transactions",
      "outputs": [
        {
          "internalType": "address",
          "name": "destination",
          "type": "address"
        },
        {
          "internalType": "uint256",
          "name": "value",
          "type": "uint256"
        },
        {
          "internalType": "bytes",
          "name": "data",
          "type": "bytes"
        },
        {
          "internalType": "bool",
          "name": "executed",
          "type": "bool"
        },
        {
          "internalType": "uint256",
          "name": "signatureCount",
          "type": "uint256"
        }
      ],
      "stateMutability": "view",
      "type": "function"
    },
    {
      "stateMutability": "payable",
      "type": "receive"
    },
    {
      "inputs": [
        {
          "internalType": "address",
          "name": "_destination",
          "type": "address"
        },
        {
          "internalType": "uint256",
          "name": "_value",
          "type": "uint256"
        },
        {
          "internalType": "bytes",
          "name": "_data",
          "type": "bytes"
        }
      ],
      "name": "proposeTransaction",
      "outputs": [],
      "stateMutability": "nonpayable",
      "type": "function"
    },
    {
      "inputs": [
        {
          "internalType": "uint256",
          "name": "_transactionId",
          "type": "uint256"
        }
      ],
      "name": "approveTransaction",
      "outputs": [],
      "stateMutability": "nonpayable",
      "type": "function"
    },
    {
      "inputs": [
        {
          "internalType": "uint256",
          "name": "_transactionId",
          "type": "uint256"
        }
      ],
      "name": "executeTransaction",
      "outputs": [],
      "stateMutability": "nonpayable",
      "type": "function"
    },
    {
      "inputs": [],
      "name": "getBalance",
      "outputs": [
        {
          "internalType": "uint256",
          "name": "",
          "type": "uint256"
        }
      ],
      "stateMutability": "view",
      "type": "function"
    }
  ],
  "bytecode": "0x608060405234801562000010575f80fd5b5060405162001a5938038062001a59833981810160405281019062000036919062000375565b80825110156200007d576040517f08c379a000000000000000000000000000000000000000000000000000000000815260040162000074906200045d565b60405180910390fd5b335f806101000a81548173ffffffffffffffffffffffffffffffffffffffff021916908373ffffffffffffffffffffffffffffffffffffffff1602179055505f5b82518110156200014f576001805f858481518110620000e257620000e16200047d565b5b602002602001015173ffffffffffffffffffffffffffffffffffffffff1673ffffffffffffffffffffffffffffffffffffffff1681526020019081526020015f205f6101000a81548160ff02191690831515021790555080806200014690620004d7565b915050620000be565b5080600281905550505062000523565b5f604051905090565b5f80fd5b5f80fd5b5f80fd5b5f601f19601f8301169050919050565b7f4e487b71000000000000000000000000000000000000000000000000000000005f52604160045260245ffd5b620001bc8262000174565b810181811067ffffffffffffffff82111715620001de57620001dd62000184565b5b80604052505050565b5f620001f26200015f565b9050620002008282620001b1565b919050565b5f67ffffffffffffffff82111562000222576200022162000184565b5b602082029050602081019050919050565b5f80fd5b5f73ffffffffffffffffffffffffffffffffffffffff82169050919050565b5f620002628262000237565b9050919050565b620002748162000256565b81146200027f575f80fd5b50565b5f81519050620002928162000269565b92915050565b5f620002ae620002a88462000205565b620001e7565b90508083825260208201905060208402830185811115620002d457620002d362000233565b5b835b81811015620003015780620002ec888262000282565b845260208401935050602081019050620002d6565b5050509392505050565b5f82601f83011262000322576200032162000170565b5b81516200033484826020860162000298565b91505092915050565b5f819050919050565b62000351816200033d565b81146200035c575f80fd5b50565b5f815190506200036f8162000346565b92915050565b5f80604083850312156200038e576200038d62000168565b5b5f83015167ffffffffffffffff811115620003ae57620003ad6200016c565b5b620003bc858286016200030b565b9250506020620003cf858286016200035f565b9150509250929050565b5f82825260208201905092915050565b7f496e73756666696369656e74207369676e65727320666f72207468652071756f5f8201527f72756d0000000000000000000000000000000000000000000000000000000000602082015250565b5f62000445602383620003d9565b91506200045282620003e9565b604082019050919050565b5f6020820190508181035f830152620004768162000437565b9050919050565b7f4e487b71000000000000000000000000000000000000000000000000000000005f52603260045260245ffd5b7f4e487b71000000000000000000000000000000000000000000000000000000005f52601160045260245ffd5b5f620004e3826200033d565b91507fffffffffffffffffffffffffffffffffffffffffffffffffffffffffffffffff8203620005185762000517620004aa565b5b600182019050919050565b61152880620005315f395ff3fe608060405260043610610089575f3560e01c80635e90852d116100585780635e90852d1461014c5780637df73e27146101745780638da5cb5b146101b05780639ace38c2146101da578063ee22610b1461021a57610090565b806312065fe0146100945780631703a018146100be578063242232d1146100e857806356c316371461011057610090565b3661009057005b5f80fd5b34801561009f575f80fd5b506100a8610242565b6040516100b59190610a2b565b60405180910390f35b3480156100c9575f80fd5b506100d2610249565b6040516100df9190610a2b565b60405180910390f35b3480156100f3575f80fd5b5061010e60048036038101906101099190610a7f565b61024f565b005b34801561011b575f80fd5b5061013660048036038101906101319190610b04565b61050b565b6040516101439190610b5c565b60405180910390f35b348015610157575f80fd5b50610172600480360381019061016d9190610cb1565b610535565b005b34801561017f575f80fd5b5061019a60048036038101906101959190610d1d565b610667565b6040516101a79190610b5c565b60405180910390f35b3480156101bb575f80fd5b506101c4610684565b6040516101d19190610d57565b60405180910390f35b3480156101e5575f80fd5b5061020060048036038101906101fb9190610a7f565b6106a7565b604051610211959493929190610dea565b60405180910390f35b348015610225575f80fd5b50610240600480360381019061023b9190610a7f565b610799565b005b5f47905090565b60025481565b60015f3373ffffffffffffffffffffffffffffffffffffffff1673ffffffffffffffffffffffffffffffffffffffff1681526020019081526020015f205f9054906101000a900460ff166102d8576040517f08c379a00000000000000000000000000000000000000000000000000000000081526004016102cf90610e9c565b60405180910390fd5b600380549050811061031f576040517f08c379a000000000000000000000000000000000000000000000000000000000815260040161031690610f04565b60405180910390fd5b60045f8281526020019081526020015f205f3373ffffffffffffffffffffffffffffffffffffffff1673ffffffffffffffffffffffffffffffffffffffff1681526020019081526020015f205f9054906101000a900460ff16156103b8576040517f08c379a00000000000000000000000000000000000000000000000000000000081526004016103af90610f92565b60405180910390fd5b600381815481106103cc576103cb610fb0565b5b905f5260205f2090600502016003015f9054906101000a900460ff1615610428576040517f08c379a000000000000000000000000000000000000000000000000000000000815260040161041f90611027565b60405180910390fd5b6003818154811061043c5761043b610fb0565b5b905f5260205f2090600502016004015f81548092919061045b90611072565b9190505550600160045f8381526020019081526020015f205f3373ffffffffffffffffffffffffffffffffffffffff1673ffffffffffffffffffffffffffffffffffffffff1681526020019081526020015f205f6101000a81548160ff0219169083151502179055503373ffffffffffffffffffffffffffffffffffffffff16817f924813d717e221b5f46dcd8a56da1679e4612584ab3237d55e5faabf6f6a307960405160405180910390a350565b6004602052815f5260405f20602052805f5260405f205f915091509054906101000a900460ff1681565b5f600380549050905060036040518060a001604052808673ffffffffffffffffffffffffffffffffffffffff1681526020018581526020018481526020015f151581526020015f815250908060018154018082558091505060019003905f5260205f2090600502015f909190919091505f820151815f015f6101000a81548173ffffffffffffffffffffffffffffffffffffffff021916908373ffffffffffffffffffffffffffffffffffffffff16021790555060208201518160010155604082015181600201908161060891906112b3565b506060820151816003015f6101000a81548160ff021916908315150217905550608082015181600401555050807f08f87945b03faf22bc8f5283b7914e21176d14d1ed3c1595348607a15641ddaa60405160405180910390a250505050565b6001602052805f5260405f205f915054906101000a900460ff1681565b5f8054906101000a900473ffffffffffffffffffffffffffffffffffffffff1681565b600381815481106106b6575f80fd5b905f5260205f2090600502015f91509050805f015f9054906101000a900473ffffffffffffffffffffffffffffffffffffffff1690806001015490806002018054610700906110e6565b80601f016020809104026020016040519081016040528092919081815260200182805461072c906110e6565b80156107775780601f1061074e57610100808354040283529160200191610777565b820191905f5260205f20905b81548152906001019060200180831161075a57829003601f168201915b505050505090806003015f9054906101000a900460ff16908060040154905085565b60038054905081106107e0576040517f08c379a00000000000000000000000000000000000000000000000000000000081526004016107d790610f04565b60405180910390fd5b600254600382815481106107f7576107f6610fb0565b5b905f5260205f209060050201600401541015610848576040517f08c379a000000000000000000000000000000000000000000000000000000000815260040161083f906113cc565b60405180910390fd5b6003818154811061085c5761085b610fb0565b5b905f5260205f2090600502016003015f9054906101000a900460ff16156108b8576040517f08c379a00000000000000000000000000000000000000000000000000000000081526004016108af90611027565b60405180910390fd5b5f600382815481106108cd576108cc610fb0565b5b905f5260205f20906005020190506001816003015f6101000a81548160ff0219169083151502179055505f815f015f9054906101000a900473ffffffffffffffffffffffffffffffffffffffff1673ffffffffffffffffffffffffffffffffffffffff168260010154836002016040516109479190611474565b5f6040518083038185875af1925050503d805f8114610981576040519150601f19603f3d011682016040523d82523d5f602084013e610986565b606091505b50509050806109ca576040517f08c379a00000000000000000000000000000000000000000000000000000000081526004016109c1906114d4565b60405180910390fd5b3373ffffffffffffffffffffffffffffffffffffffff16837fefc13bdcf58f184ea7cae26b499fb33b539e01d0197cea456f3ada289b8cf19b60405160405180910390a3505050565b5f819050919050565b610a2581610a13565b82525050565b5f602082019050610a3e5f830184610a1c565b92915050565b5f604051905090565b5f80fd5b5f80fd5b610a5e81610a13565b8114610a68575f80fd5b50565b5f81359050610a7981610a55565b92915050565b5f60208284031215610a9457610a93610a4d565b5b5f610aa184828501610a6b565b91505092915050565b5f73ffffffffffffffffffffffffffffffffffffffff82169050919050565b5f610ad382610aaa565b9050919050565b610ae381610ac9565b8114610aed575f80fd5b50565b5f81359050610afe81610ada565b92915050565b5f8060408385031215610b1a57610b19610a4d565b5b5f610b2785828601610a6b565b9250506020610b3885828601610af0565b9150509250929050565b5f8115159050919050565b610b5681610b42565b82525050565b5f602082019050610b6f5f830184610b4d565b92915050565b5f80fd5b5f80fd5b5f601f19601f8301169050919050565b7f4e487b71000000000000000000000000000000000000000000000000000000005f52604160045260245ffd5b610bc382610b7d565b810181811067ffffffffffffffff82111715610be257610be1610b8d565b5b80604052505050565b5f610bf4610a44565b9050610c008282610bba565b919050565b5f67ffffffffffffffff821115610c1f57610c1e610b8d565b5b610c2882610b7d565b9050602081019050919050565b828183375f83830152505050565b5f610c55610c5084610c05565b610beb565b905082815260208101848484011115610c7157610c70610b79565b5b610c7c848285610c35565b509392505050565b5f82601f830112610c9857610c97610b75565b5b8135610ca8848260208601610c43565b91505092915050565b5f805f60608486031215610cc857610cc7610a4d565b5b5f610cd586828701610af0565b9350506020610ce686828701610a6b565b925050604084013567ffffffffffffffff811115610d0757610d06610a51565b5b610d1386828701610c84565b9150509250925092565b5f60208284031215610d3257610d31610a4d565b5b5f610d3f84828501610af0565b91505092915050565b610d5181610ac9565b82525050565b5f602082019050610d6a5f830184610d48565b92915050565b5f81519050919050565b5f82825260208201905092915050565b5f5b83811015610da7578082015181840152602081019050610d8c565b5f8484015250505050565b5f610dbc82610d70565b610dc68185610d7a565b9350610dd6818560208601610d8a565b610ddf81610b7d565b840191505092915050565b5f60a082019050610dfd5f830188610d48565b610e0a6020830187610a1c565b8181036040830152610e1c8186610db2565b9050610e2b6060830185610b4d565b610e386080830184610a1c565b9695505050505050565b5f82825260208201905092915050565b7f4e6f7420616e20617574686f72697a6564207369676e657200000000000000005f82015250565b5f610e86601883610e42565b9150610e9182610e52565b602082019050919050565b5f6020820190508181035f830152610eb381610e7a565b9050919050565b7f496e76616c6964207472616e73616374696f6e204944000000000000000000005f82015250565b5f610eee601683610e42565b9150610ef982610eba565b602082019050919050565b5f6020820190508181035f830152610f1b81610ee2565b9050919050565b7f5472616e73616374696f6e20616c726561647920617070726f766564206279205f8201527f74686973207369676e6572000000000000000000000000000000000000000000602082015250565b5f610f7c602b83610e42565b9150610f8782610f22565b604082019050919050565b5f6020820190508181035f830152610fa981610f70565b9050919050565b7f4e487b71000000000000000000000000000000000000000000000000000000005f52603260045260245ffd5b7f5472616e73616374696f6e20616c7265616479206578656375746564000000005f82015250565b5f611011601c83610e42565b915061101c82610fdd565b602082019050919050565b5f6020820190508181035f83015261103e81611005565b9050919050565b7f4e487b71000000000000000000000000000000000000000000000000000000005f52601160045260245ffd5b5f61107c82610a13565b91507fffffffffffffffffffffffffffffffffffffffffffffffffffffffffffffffff82036110ae576110ad611045565b5b600182019050919050565b7f4e487b71000000000000000000000000000000000000000000000000000000005f52602260045260245ffd5b5f60028204905060018216806110fd57607f821691505b6020821081036111105761110f6110b9565b5b50919050565b5f819050815f5260205f209050919050565b5f6020601f8301049050919050565b5f82821b905092915050565b5f600883026111727fffffffffffffffffffffffffffffffffffffffffffffffffffffffffffffffff82611137565b61117c8683611137565b95508019841693508086168417925050509392505050565b5f819050919050565b5f6111b76111b26111ad84610a13565b611194565b610a13565b9050919050565b5f819050919050565b6111d08361119d565b6111e46111dc826111be565b848454611143565b825550505050565b5f90565b6111f86111ec565b6112038184846111c7565b505050565b5b818110156112265761121b5f826111f0565b600181019050611209565b5050565b601f82111561126b5761123c81611116565b61124584611128565b81016020851015611254578190505b61126861126085611128565b830182611208565b50505b505050565b5f82821c905092915050565b5f61128b5f1984600802611270565b1980831691505092915050565b5f6112a3838361127c565b9150826002028217905092915050565b6112bc82610d70565b67ffffffffffffffff8111156112d5576112d4610b8d565b5b6112df82546110e6565b6112ea82828561122a565b5f60209050601f83116001811461131b575f8415611309578287015190505b6113138582611298565b86555061137a565b601f19841661132986611116565b5f5b828110156113505784890151825560018201915060208501945060208101905061132b565b8683101561136d5784890151611369601f89168261127c565b8355505b6001600288020188555050505b505050505050565b7f496e73756666696369656e7420617070726f76616c73000000000000000000005f82015250565b5f6113b6601683610e42565b91506113c182611382565b602082019050919050565b5f6020820190508181035f8301526113e3816113aa565b9050919050565b5f81905092915050565b5f8154611400816110e6565b61140a81866113ea565b9450600182165f811461142457600181146114395761146b565b60ff198316865281151582028601935061146b565b61144285611116565b5f5b8381101561146357815481890152600182019150602081019050611444565b838801955050505b50505092915050565b5f61147f82846113f4565b915081905092915050565b7f5472616e73616374696f6e206661696c656400000000000000000000000000005f82015250565b5f6114be601283610e42565b91506114c98261148a565b602082019050919050565b5f6020820190508181035f8301526114eb816114b2565b905091905056fea2646970667358221220e40283e63718066832a86fd26e196b97ea5655fe141a6a22f40883d5ad6ce7e164736f6c63430008150033",
  "immutableReferences": {},
  "source": "// SPDX-License-Identifier: MIT\r\npragma solidity ^0.8.0;\r\n\r\ncontract MultiSigWallet {\r\n    address public owner;\r\n    mapping(address => bool) public isSigner;\r\n    uint public quorum;\r\n\r\n    struct Transaction {\r\n        address destination;\r\n        uint value;\r\n        bytes data;\r\n        bool executed;\r\n        uint signatureCount;\r\n    }\r\n\r\n    Transaction[] public transactions;\r\n    mapping(uint => mapping(address => bool)) public isApproved;\r\n\r\n// The contract emits events when a transaction is proposed, approved, or executed, providing transparency and traceability.\r\n    event TransactionProposed(uint indexed transactionId);\r\n    event TransactionApproved(uint indexed transactionId, address indexed approver);\r\n    event TransactionExecuted(uint indexed transactionId, address indexed executor);\r\n\r\n\r\n//  The contract is initialized with a list of authorized signers and a required quorum.\r\n    constructor(address[] memory _signers, uint _quorum) {\r\n        require(_signers.length >= _quorum, \"Insufficient signers for the quorum\");\r\n        owner = msg.sender;\r\n        for(uint i = 0; i < _signers.length; i++) {\r\n            isSigner[_signers[i]] = true;\r\n        }\r\n        quorum = _quorum;\r\n    }\r\n\r\n    modifier onlyOwner() {\r\n        require(msg.sender == owner, \"Not the owner\");\r\n        _;\r\n    }\r\n\r\n    modifier onlySigner() {\r\n        require(isSigner[msg.sender], \"Not an authorized signer\");\r\n        _;\r\n    }\r\n\r\n\r\n\r\n// Any user can propose a transaction. The transaction details are stored in an array.\r\n    function proposeTransaction(address _destination, uint _value, bytes memory _data) public {\r\n        uint transactionId = transactions.length;\r\n        transactions.push(Transaction({\r\n            destination: _destination,\r\n            value: _value,\r\n            data: _data,\r\n            executed: false,\r\n            signatureCount: 0\r\n        }));\r\n        emit TransactionProposed(transactionId);\r\n    }\r\n\r\n\r\n\r\n//  Authorized signers can approve proposed transactions. A transaction can't be approved more than once by the same signer.\r\n    function approveTransaction(uint _transactionId) public onlySigner {\r\n        require(_transactionId < transactions.length, \"Invalid transaction ID\");\r\n        require(!isApproved[_transactionId][msg.sender], \"Transaction already approved by this signer\");\r\n        require(!transactions[_transactionId].executed, \"Transaction already executed\");\r\n\r\n        transactions[_transactionId].signatureCount++;\r\n        isApproved[_transactionId][msg.sender] = true;\r\n        emit TransactionApproved(_transactionId, msg.sender);\r\n    }\r\n\r\n\r\n\r\n// If the number of approvals meets or exceeds the quorum, the transaction can be executed by any signer.\r\n    function executeTransaction(uint _transactionId) public {\r\n        require(_transactionId < transactions.length, \"Invalid transaction ID\");\r\n        require(transactions[_transactionId].signatureCount >= quorum, \"Insufficient approvals\");\r\n        require(!transactions[_transactionId].executed, \"Transaction already executed\");\r\n\r\n        Transaction storage transaction = transactions[_transactionId];\r\n        transaction.executed = true;\r\n\r\n        (bool success,) = transaction.destination.call{value: transaction.value}(transaction.data);\r\n        require(success, \"Transaction failed\");\r\n\r\n        emit TransactionExecuted(_transactionId, msg.sender);\r\n    }\r\n\r\n\r\n\r\n// The contract can receive Ether, which can be part of proposed transactions.\r\n    receive() external payable {}\r\n\r\n\r\n\r\n    // Function to check the contract's balance\r\n    function getBalance() public view returns (uint) {\r\n        return address(this).balance;\r\n    }\r\n}\r\n",
  "sourcePath": "C:\\Users\\Lenovo\\Desktop\\MultiSignatureWallet\\contracts\\MultiSigWallet.sol",
  "compiler": {
    "name": "solc",
    "version": "0.8.21+commit.d9974bed.Emscripten.clang"
  },
  "schemaVersion": "3.4.16",
  "updatedAt": "2023-12-14T11:11:42.032Z",
  "devdoc": {
    "kind": "dev",
    "methods": {},
    "version": 1
  },
  "userdoc": {
    "kind": "user",
    "methods": {},
    "version": 1
  }
}